:020000040800F2
:10000000300E002041010008670100086901000866
:1000100000000000000000000000000000000000E0
:1000200000000000000000000000000005060008BD
:100030000000000000000000FF000008E1060008CA
:100040007101000800000000710100087101000842
:1000500071010008710100087101000871010008B8
:100060000000000071010008710100087101000822
:100070007101000871010008710100080000000012
:10008000710100080000000000000000710100087C
:100090007101000871010008710100087101000878
:1000A0007101000871010008710100087101000868
:1000B000710100080348854600F0B4F80048004785
:1000C000210C0008300E0020084B19680868203009
:1000D00080F30988022080F31488BFF36F8F3FBC40
:1000E000AE4608BC04BC62B61847000014000020ED
:1000F000EFF3108072B6704780F310887047EFF30B
:1001000009800E4B1A6820381060F0C044464D46F6
:1001100056465F46F0C008B572B601F04DF962B6BA
:100120000CBC116808681030F0C8A046A946B24659
:10013000BB4680F309882038F0C818471400002017
:100140000C4880F308880C480168090E0B4A91425C
:1001500005D10B480B4901600B480C4901600C4864
:1001600080470C480047FEE7FEE7FEE7FEE7FEE7B4
:10017000FEE70000300E0020040000001F00000019
:1001800018100240010000000000014000000000C3
:10019000B5070008B500000830B50B460146002041
:1001A0002022012409E00D46D5409D4205D31D467D
:1001B0009540491B2546954040191546521E002D75
:1001C000F1DC30BD70B500242546002801DA012499
:1001D0004042002901DA01254942FFF7DDFFAC4228
:1001E00000D04042002C00D0494270BD03460B4372
:1001F0009B0703D009E008C9121F08C0042AFAD2DD
:1002000003E00B780370401C491C521EF9D2704762
:1002100003460A780270401C491C002AF9D118468E
:1002200070470000064C0125064E05E0E36807CC48
:100230002B430C3C98471034B442F7D3FFF73EFFF2
:10024000C8170008E8170008F0B50A460021002387
:10025000002400BF3DE001258D402B4615681D4060
:100260002C469C4234D11579012D02D01579022DEE
:1002700016D185684F000326BE40B5438560557989
:100280004E00B540866835438560858801268E40DE
:10029000B5438580858896798E40B6B23543858092
:1002A00005684F000326BE40B543056015794E0032
:1002B000B540066835430560C5684F000326BE405B
:1002C000B543C560D5794E00B540C6683543C560B5
:1002D000491C1029BFD3F0BD01857047002905D006
:1002E000054A52690243044B5A6104E0024A5269CA
:1002F0008243014B5A61704700100240F8B5044632
:100300000D46164600BF0E480078002801D100F0C7
:100310008FFA00BFEFF310800746012080F31088AA
:1003200000BF00BF32462946204600F00BF800907F
:10033000F8B280F3108800BF00BF0098F8BD00003D
:1003400034090020F7B582B007461646039801909D
:10035000182078431B4940180090009840690028F5
:1003600004D0012811D0022826D11EE0009800F008
:1003700095FA0546B54201D2002405E034463246DE
:100380000199009800F00DFC18E0009800F086FA42
:100390000546B54201D2284600E0304604462246D2
:1003A0000199009800F0FDFB08E0324601990098A1
:1003B00000F0BAFB044601E0002400BF00BF204665
:1003C00005B0F0BD4C0900200FB438B5044606A8AE
:1003D00000906A462046059900F008F8054600207E
:1003E0000090284638BC08BC04B01847F7B59AB04E
:1003F0000D46144602A81590402016900020179034
:100400001A9819900020189000BF2E786D1C002EAD
:1004100000D1E4E0252E79D100270120149000BFFF
:100420002E78232E12D02B2E0CD02D2E02D0302E33
:1004300010D103E0012007436D1C0EE002200743AA
:100440006D1C0AE0042007436D1C06E008200743EA
:100450006D1C02E00020149000BF00BF149800281B
:10046000DED1129000BF2E78302E01DB392E00DD58
:1004700008E06D1C0A211298484331463039401873
:100480001290F0E700BF002013902E782E2E11D18D
:100490006D1C00BF2E78302E01DB392E00DD08E008
:1004A0006D1C0A2113984843314630394018139087
:1004B000F0E700BF2E7800BF6C2E01D0682E02D16D
:1004C0006D1C2E7800E000E0F6E700BF702E63D0D0
:1004D00008DC252E72D0582E38D0632E09D0642E19
:1004E00071D114E0732E40D0752E1FD0782E6AD1B2
:1004F0002BE02168081D2060086814901498C0B291
:10050000019015A8019900F0EDFA5DE05FE0216827
:10051000081D2060086814901298019700900A2224
:1005200015A8139B149900F0C7F94DE02168081D28
:100530002060086814901298019700900A2215A86C
:10054000139B149900F040FA3EE000BF2168081D9B
:10055000206008681490129801970090102215A846
:10056000139B149900F030FA2EE02168081D2060DA
:100570000868019000BF019806780198401C01901E
:10058000002E00D106E0314615A800F0ABFA18980D
:100590000028F0DA00BF17E02168081D2060086815
:1005A0001490002008210B4610220091019015A8FC
:1005B000149900F009FA07E000E004E0252115A8ED
:1005C00000F090FA00E000BF00BF6D1C03E0314670
:1005D00015A800F087FA1898002800DB15E700BF7F
:1005E000189800280BDD1798002804D002A9179A44
:1005F0001A98FFF783FE17991898401818901898C2
:100600001DB0F0BD704700000CB5002001900090B7
:10061000314800680121090408432F49086000BFE0
:100620002D48006801214904084000900198401CB1
:1006300001900098002804D10521090301988842FF
:10064000EED125480068012149040840002802D065
:100650000120009001E0002000900098012839D18D
:1006600011201E4908601C4840681B494860084624
:1006700040684860084640687F21C903884316499E
:10068000486008464068112109040843124948603F
:10069000084600680121090608430F49086000BFA9
:1006A0000D4800680121490608400028F8D00A4892
:1006B0004068800880000849486008464068022178
:1006C00008430549486000BF034840680C210840C2
:1006D0000828F9D10CBD00000010024000200240A3
:1006E00010B5FFF705FD044600F050FF002803D0C9
:1006F00001200007024948602046FFF7FDFC10BDBD
:1007000000ED00E0F8B5002500240026002724486D
:1007100040680C2108400546002D04D0042D06D069
:10072000082D2AD107E01F481F49086029E01D480D
:100730001D49086025E01A4840680F2189040840D7
:100740000446174840680321C90308400646A00C28
:10075000841C002E04D115486043134908600BE047
:100760000F48C06A0007000F471C39460D48FFF7C5
:1007700013FD60430C49086003E00A480A49086019
:1007800000BF00BF06484068F02108400009084942
:100790000D5C05480068E84003490860F8BD0000AA
:1007A0000010024000127A000000002000093D0005
:1007B0000400002010B51B480068012108431949B6
:1007C00008600846406818490840164948600846CD
:1007D000006816490840134908600846006801216E
:1007E000890488430F490860084640683F2109048E
:1007F00088430C4948600846C06A00090001C86285
:100800000846006BFF2154318843064908630846B7
:10081000406B40084000486300208860FFF7F4FE0A
:1008200010BD0000001002400CB8FF08FFFFF6FEEC
:1008300010B5114C03202061606110A0A061124925
:10084000E161402121620021A1626162E1620BA0AD
:1008500020660E4961661021A16600212167E166CC
:1008600061670BA1E01DFFF7D3FC0AA12046FFF74B
:10087000CFFC2020A07110BD340900205465726D9A
:10088000696E616C00000000DC0900201C0A002079
:1008900052545400534547474552000010B5014695
:1008A0000A69CB689A4204D88C68641EE41AA018BE
:1008B00001E0D41A601E10BDFFB585B006460F4694
:1008C0000F9D0E9C002F01DA784200E0384603901D
:1008D0000120049007E007990398FFF773FC039049
:1008E0000498401C0490079903988842F3DA04990D
:1008F0000898884201D908980490002C06D0002F4F
:1009000003DB04202840042800D1641E0220284074
:10091000002802D00898002815D0E807C00F00284A
:1009200011D1002C0FD008E0641E2021304600F0C9
:10093000D9F8F068002800DA04E0002C02D004980E
:10094000A042F1D300BFF06800283ADB002F05DA9F
:100950007F422D21304600F0C5F807E004202840F2
:10096000042803D12B21304600F0BCF8F0680028A1
:1009700027DB02202840022818D1E807C00F0028F2
:1009800014D10898002811D1002C0FD008E0641E63
:100990003021304600F0A6F8F068002800DA04E0C4
:1009A000002C02D00498A042F1D300BFF0680028C8
:1009B00007DB0195009439463046089B079A00F002
:1009C00003F809B0F0BD0000FFB585B00646174634
:1009D0001D460E9C0698029001200390019007E0AE
:1009E00039460298FFF7D8FB02900198401C01900D
:1009F0000298B842F4D20198854200D901950F9827
:100A0000C007C00F00281DD1002C1BD002210F9859
:100A10000840022804D1002D02D13020009001E0CE
:100A20002020009008E0641E3046009900F05AF83B
:100A3000F068002800DA04E0002C02D00198A042FF
:100A4000F1D300BFF068002848DB0FE0012D01D989
:100A50006D1E08E003990698FFF79EFB049004982A
:100A6000B84200D203E0039878430390EEE700BF5A
:100A700000BF03990698FFF78FFB04900399049831
:100A800048430699081A0690154A0498115C3046A6
:100A900000F028F8F068002800DA07E039460398EB
:100AA000FFF77AFB039003980028E2D100BF0F986C
:100AB000C007C00F002811D0002C0FD008E0641E22
:100AC0002021304600F00EF8F068002800DA04E03B
:100AD000002C02D00198A042F1D300BF09B0F0BDB4
:100AE000B817000870B504460E46A568681C616812
:100AF000814206D320684655681CA060E068401C0F
:100B0000E0606168A06888420DD1A2682168206910
:100B1000FFF7F4FBA168884203D00020C043E060E7
:100B200001E00020A06070BDF7B582B00446174612
:100B300000200190E56800BF206900900098A8425D
:100B400003D90098401B461E04E0A1680098281AAB
:100B5000401C0E1AA068401BB04201D9304601E08B
:100B6000A068401B0646BE4201D2304600E038462F
:100B700006466168481932460399FFF737FB01982A
:100B800080190190039880190390BF1BAD19A068CC
:100B9000A84200D10025E560002FCDD1019805B015
:100BA000F0BDF7B582B004461546E668A068871B1D
:100BB000AF4208D9616888192A460399FFF716FBE6
:100BC0007019E06010E0019761688819019A039933
:100BD000FFF70CFBE81B0190039AD1196068019A9A
:100BE000FFF704FB0198E06005B0F0BD02E008C823
:100BF000121F08C1002AFAD170477047002001E097
:100C000001C1121F002AFBD170470920C006808A4B
:100C10000121C90348400921C906888270470000A4
:100C20001CB500200321034680220091019004A1FD
:100C3000044800F077FC00F081FB00BFFEE70000F5
:100C40006C65640039140008F8B505460E4617486F
:100C5000076817480068001D00F094FA681C002817
:100C600008D1002E06D012480168091D114800F075
:100C7000C8FA1AE07C190E4800684460BC4207D2EA
:100C80000B480168091D0C48006800F09FFA0CE051
:100C900007480168091D0948006800F097FA0848EC
:100CA0000068844201D206480460F8BD2800002094
:100CB00014000020200100201C000020180000204B
:100CC0004400002010B5044600F0A8FA204800684F
:100CD000401C1F4908601F480068002808D11D48B3
:100CE00004600846006801280ED100F00BF90BE003
:100CF00019480068002807D116480068C06AE16AF0
:100D0000884201D81348046014480068401C134905
:100D100008601349E06A0968884202D91049E06A0C
:100D200008601422E16A51430E4A8818211D00F020
:100D300068FA00F081FA08480068002807D00548E2
:100D40000068C06AE16A884201D200F0C9FA10BDA9
:100D5000240000201400002030000020400000206B
:100D60002C0000206C00002010B516E000F056FAB0
:100D70000C48C068C468201D00F004FA0A480068E6
:100D8000401E0949086009480068401E074908607C
:100D900000F052FA204600F00BF8044800680028E2
:100DA000E4D110BD0C010020240000202000002010
:100DB00010B50446206B00F053FA204600F050FABC
:100DC00010BD000030B50123DB0217484407640F53
:100DD000002C05D0C01DC008C000134C041B1B1BF9
:100DE0000246124C22600024104D6C60D018083866
:100DF000C008C0000E4C206000240D4D2D686C60B2
:100E00000B4D2D682C601146441A4C60084C246828
:100E10000C60084D4C682C60074D4C682C60012418
:100E2000E407064D2C6030BD340100205000002046
:100E300058000020600000205C00002064000020BA
:100E400000BFFFF791FF034800680128F9D900F0BF
:100E500047FAF6E76C000020FFB581B00E460A9F06
:100E60000C9C216B0398401E80000818009000988D
:100E7000C008C000009000984007400F002801D132
:100E8000012000E00020002802D172B600BFFEE77A
:100E9000002E11D0002508E0715D20463430415508
:100EA000705D002800D102E06D1C102DF4D300BF4E
:100EB00000214320015502E0002134200155052F77
:100EC00000D30427E762201D00F07DF9204618308A
:100ED00000F079F924610520C01BA0616462002044
:100EE0006064002148200155049A0199009800F09F
:100EF00039F920600B98002801D00B98046005B0E8
:100F0000F0BD000010B5002406E0142161430E4A34
:100F1000881800F04BF9641C052CF6D30B4800F040
:100F200045F90B4800F042F90A4800F03FF90A4839
:100F300000F03CF9094800F039F904480849086014
:100F400003480849086010BD6C000020D000002054
:100F5000E4000020F80000200C0100202001002007
:100F6000180000201C00002010B50146164800E0C3
:100F7000006803688B42FBD3024643689B188B4290
:100F800004D143684C681B19436001460A464B680C
:100F90009B180468A34211D10C4C03682468A34237
:100FA00008D04B68046864681B194B6003681B68B1
:100FB0000B6005E0054B1B680B6001E003680B60EC
:100FC000884200D0016010BD500000205800002071
:100FD0000B4909680968002901D1012100E00021BD
:100FE000002904D00021C943064A116006E00449E3
:100FF0000968C968C868034A416811607047000001
:101000001800002044000020002004490861886185
:1010100003484861072008617047000000E000E0D5
:101020007FBB000007480068401C002801D1012058
:1010300000E00020002802D172B600BFFEE772B6C1
:1010400000BFFEE768000020F8B5044600200090CD
:1010500000F0AAF93E480068002801D1FFF7B2FE6F
:101060003C4800682040002861D1002C15D008348D
:101070006007400F002810D06007400F0821081AB1
:1010800004196007400F002801D1012000E0002072
:10109000002802D172B600BFFEE7002C47D02E48D0
:1010A0000068844243D82D4E3046056801E02E4644
:1010B0002D686868A04202D228680028F7D1244829
:1010C0000068854233D0306808300090286830606E
:1010D0006868001B102813D92F197807400F0028C3
:1010E00001D1012000E00020002802D172B600BF2B
:1010F000FEE76868001B78606C603846FFF734FFD5
:10110000154968680968081A1349086008460068A4
:1011100013490968884203D20F48006810490860E3
:101120000C4968680968084368600020286000F07E
:10113000CBFA00984007400F002801D1012000E0C1
:101140000020002802D172B600BFFEE70098F8BD6B
:1011500058000020640000205C00002050000020A7
:1011600060000020001F01231B060360001F0160B8
:10117000001F034B036014380260203870470000E2
:101180002510000801460A694B68886898608B68DA
:10119000486858605068884201D1886850600020D3
:1011A00008611068401E10601068704701460831E1
:1011B00041600021C943816001460831C16001617D
:1011C00000210160704700210161704710B502469F
:1011D0000B685C1C002C01D1106907E01046083038
:1011E00000E04068446824689C42FAD944684C6036
:1011F0004C68A160886041600A611468641C1460D6
:1012000010BD42684A6093688B6093685960916032
:10121000086103685B1C03607047000072B60548F4
:101220000068401C03490860BFF34F8FBFF36F8F06
:10123000704700006800002008480068002802D1BC
:1012400072B600BFFEE705480068401E034908600B
:1012500008460068002800D162B670476800002088
:1012600070B506463546002E35D0083D2C461A4945
:10127000606809680840002801D0012000E00020D3
:10128000002802D172B600BFFEE72068002801D115
:10129000012000E00020002802D172B600BFFEE766
:1012A0000D49606809680840002814D020680028AB
:1012B00011D10949606809688843606000F074F8DA
:1012C0000649606809684018044908602046FFF72D
:1012D0004BFE00F0F9F970BD640000205C000020B6
:1012E0000120000703494860BFF34F8FBFF36F8FA2
:1012F0007047000000ED00E070B504460025002CAA
:1013000014D00D480068002801D1012000E0002021
:10131000002802D172B600BFFEE700F045F80021B8
:101320002046FFF791FC00F0CFF90546002D01D1D2
:10133000FFF7D6FF70BD00004C0000201CB513481D
:1013400000210B4680220091019011A1124800F06B
:10135000E9F80446012C0DD172B60020C0430F49B4
:10136000086001200E49086000200E49086000F066
:10137000BDF80AE0601C002801D0012000E0002038
:10138000002802D172B600BFFEE71CBD4800002055
:1013900049444C4500000000410E00084400002074
:1013A000300000202800002002480068401C01494D
:1013B000086070474C0000201A480068002803D0DD
:1013C0000120194908602CE00020174908601748DF
:1013D000016805E0002902D172B600BFFEE7491E90
:1013E00014204843124A1058002801D1012000E07F
:1013F00000200028EED114224A430D4BD018426839
:1014000052684260024608324368934202D1426801
:10141000526842604268D268064B1A600348016015
:1014200000BF70474C000020380000202C00002036
:101430006C000020140000201CB501214804FEF7B8
:101440004DFF0120C0030090012168460171002179
:101450008171032141710021C17169460920C006D3
:10146000FEF7F2FE0121C9030920C006FEF734FF92
:1014700019E0FFF7CAFBFFF745F90B480BA102681B
:101480000020FEF7A1FF00F07BF8044600F028F8EA
:10149000054623462A460BA10020FEF795FF7D2036
:1014A000C000FFF729FFE4E70000002053797374C0
:1014B000656D436F7265436C6F636B3A25752E0DD6
:1014C0000A00000073797374656D20686561703A75
:1014D00025752C207469636B3A25752E0D0A000062
:1014E00001480068704700005C00002010B50B4800
:1014F000006AFF2109040843084908620846006A97
:10150000FF210906084305490862FFF77DFD002019
:1015100003490860FEF7D8FD002010BD00ED00E093
:1015200068000020FFB585B01746B800FFF78CFDB6
:101530000646002E0BD04C20FFF786FD0446002CFB
:1015400001D0266304E03046FFF78AFE00E0002465
:10155000002C10D000220F990E986B4613C30392F3
:101560003A46089B06990598FFF776FC2046FFF758
:10157000A9FB012501E00025ED43284609B0F0BD97
:10158000014908687047000028000020F8B50020D5
:10159000009042480068002872D141480068451C0C
:1015A0003F480560002D1CD13E48006800680028B7
:1015B00001D1012000E00020002802D172B600BF56
:1015C000FEE73848076838480068364908603648FA
:1015D000076036480068401C34490860FFF7F8FC93
:1015E00000BF3348006885423DD300BF2D480068E6
:1015F0000068002801D1012000E00020002804D06C
:101600000020C0432A4908602CE026480068C068D2
:10161000C4686668B54202D22548066022E0201DF3
:10162000FFF7B0FDA06A002803D020461830FFF76E
:10163000A9FD2049E06A0968884202D91D49E06A8B
:1016400008601422E16A51431B4A8818211DFFF7E4
:10165000D8FD1A49E06A0968C96A8842C6D30120E0
:101660000090C3E700BF15480068C06A14214843D2
:1016700011490858012801D90120009005E0FFE731
:101680000F480068401C0E4908600E48006800289A
:1016900001D0012000900098F8BD00004C0000200F
:1016A00028000020180000201C0000203C00002022
:1016B000440000202C0000206C00002014000020BA
:1016C000340000203800002070B500240026324885
:1016D0000068002802D172B600BFFEE7FFF79EFD4A
:1016E0002D480068401E2C49086008460068002804
:1016F0004DD12A480068002849D022E02848C06817
:10170000C46820461830FFF73DFD201DFFF73AFD65
:101710002449E06A0968884202D92249E06A0860DF
:101720001422E16A5143204A8818211DFFF769FD00
:101730001E49E06A0968C96A884202D301201C492F
:10174000086017480068002801D1012000E000204F
:101750000028D3D0002C01D0FFF73AFC15480568CB
:10176000002D0DD000BFFFF711FF002802D001208F
:101770000F4908606D1E002DF5D100200D4908604D
:101780000B480068002802D00126FFF7A9FDFFF7EB
:1017900053FD304670BD00004C00002024000020A6
:1017A000F80000202C0000206C0000201400002015
:1017B00038000020340000203031323334353637E1
:1017C0003839414243444546E817000800000020EC
:1017D0006C000000EC0B0008541800086C0000209E
:1017E000C40D0000FC0B0008006CDC0200000000CF
:1017F00000000000010203040607080900000000C1
:1018000000000000000000000000000000000000D8
:1018100000000000000000000000000000000000C8
:1018200000000000000000000000000000000000B8
:1018300000000000000000000000000000000000A8
:101840000000000000000000000000000000000098
:04185000AAAAAAAAEC
:04000005080000B53A
:00000001FF
